{
  "_format": "hh-sol-artifact-1",
  "contractName": "OPNFractionalization",
  "sourceName": "contracts/OPNFractionalization.sol",
  "abi": [
    {
      "inputs": [
        {
          "internalType": "string",
          "name": "_uri",
          "type": "string"
        },
        {
          "internalType": "address",
          "name": "_feeRecipient",
          "type": "address"
        }
      ],
      "stateMutability": "nonpayable",
      "type": "constructor"
    },
    {
      "anonymous": false,
      "inputs": [
        {
          "indexed": true,
          "internalType": "address",
          "name": "account",
          "type": "address"
        },
        {
          "indexed": true,
          "internalType": "address",
          "name": "operator",
          "type": "address"
        },
        {
          "indexed": false,
          "internalType": "bool",
          "name": "approved",
          "type": "bool"
        }
      ],
      "name": "ApprovalForAll",
      "type": "event"
    },
    {
      "anonymous": false,
      "inputs": [
        {
          "indexed": true,
          "internalType": "address",
          "name": "oldRecipient",
          "type": "address"
        },
        {
          "indexed": true,
          "internalType": "address",
          "name": "newRecipient",
          "type": "address"
        }
      ],
      "name": "FeeRecipientUpdated",
      "type": "event"
    },
    {
      "anonymous": false,
      "inputs": [
        {
          "indexed": true,
          "internalType": "uint256",
          "name": "tokenId",
          "type": "uint256"
        },
        {
          "indexed": true,
          "internalType": "address",
          "name": "buyer",
          "type": "address"
        },
        {
          "indexed": false,
          "internalType": "uint256",
          "name": "amount",
          "type": "uint256"
        },
        {
          "indexed": false,
          "internalType": "uint256",
          "name": "totalCost",
          "type": "uint256"
        }
      ],
      "name": "FractionsPurchased",
      "type": "event"
    },
    {
      "anonymous": false,
      "inputs": [
        {
          "indexed": false,
          "internalType": "address",
          "name": "account",
          "type": "address"
        }
      ],
      "name": "Paused",
      "type": "event"
    },
    {
      "anonymous": false,
      "inputs": [
        {
          "indexed": false,
          "internalType": "uint256",
          "name": "oldFee",
          "type": "uint256"
        },
        {
          "indexed": false,
          "internalType": "uint256",
          "name": "newFee",
          "type": "uint256"
        }
      ],
      "name": "PlatformFeeUpdated",
      "type": "event"
    },
    {
      "anonymous": false,
      "inputs": [
        {
          "indexed": true,
          "internalType": "uint256",
          "name": "requestId",
          "type": "uint256"
        },
        {
          "indexed": true,
          "internalType": "uint256",
          "name": "tokenId",
          "type": "uint256"
        },
        {
          "indexed": true,
          "internalType": "address",
          "name": "approver",
          "type": "address"
        }
      ],
      "name": "RequestApproved",
      "type": "event"
    },
    {
      "anonymous": false,
      "inputs": [
        {
          "indexed": true,
          "internalType": "uint256",
          "name": "requestId",
          "type": "uint256"
        },
        {
          "indexed": true,
          "internalType": "uint256",
          "name": "assetId",
          "type": "uint256"
        },
        {
          "indexed": true,
          "internalType": "address",
          "name": "proposer",
          "type": "address"
        }
      ],
      "name": "RequestAutoApproved",
      "type": "event"
    },
    {
      "anonymous": false,
      "inputs": [
        {
          "indexed": true,
          "internalType": "uint256",
          "name": "requestId",
          "type": "uint256"
        },
        {
          "indexed": true,
          "internalType": "address",
          "name": "canceller",
          "type": "address"
        }
      ],
      "name": "RequestCancelled",
      "type": "event"
    },
    {
      "anonymous": false,
      "inputs": [
        {
          "indexed": true,
          "internalType": "uint256",
          "name": "requestId",
          "type": "uint256"
        },
        {
          "indexed": true,
          "internalType": "address",
          "name": "proposer",
          "type": "address"
        },
        {
          "indexed": false,
          "internalType": "string",
          "name": "assetName",
          "type": "string"
        },
        {
          "indexed": false,
          "internalType": "uint256",
          "name": "totalFractions",
          "type": "uint256"
        },
        {
          "indexed": false,
          "internalType": "uint256",
          "name": "pricePerFraction",
          "type": "uint256"
        }
      ],
      "name": "RequestCreated",
      "type": "event"
    },
    {
      "anonymous": false,
      "inputs": [
        {
          "indexed": true,
          "internalType": "uint256",
          "name": "requestId",
          "type": "uint256"
        },
        {
          "indexed": true,
          "internalType": "address",
          "name": "rejecter",
          "type": "address"
        },
        {
          "indexed": false,
          "internalType": "string",
          "name": "reason",
          "type": "string"
        }
      ],
      "name": "RequestRejected",
      "type": "event"
    },
    {
      "anonymous": false,
      "inputs": [
        {
          "indexed": true,
          "internalType": "bytes32",
          "name": "role",
          "type": "bytes32"
        },
        {
          "indexed": true,
          "internalType": "bytes32",
          "name": "previousAdminRole",
          "type": "bytes32"
        },
        {
          "indexed": true,
          "internalType": "bytes32",
          "name": "newAdminRole",
          "type": "bytes32"
        }
      ],
      "name": "RoleAdminChanged",
      "type": "event"
    },
    {
      "anonymous": false,
      "inputs": [
        {
          "indexed": true,
          "internalType": "bytes32",
          "name": "role",
          "type": "bytes32"
        },
        {
          "indexed": true,
          "internalType": "address",
          "name": "account",
          "type": "address"
        },
        {
          "indexed": true,
          "internalType": "address",
          "name": "sender",
          "type": "address"
        }
      ],
      "name": "RoleGranted",
      "type": "event"
    },
    {
      "anonymous": false,
      "inputs": [
        {
          "indexed": true,
          "internalType": "bytes32",
          "name": "role",
          "type": "bytes32"
        },
        {
          "indexed": true,
          "internalType": "address",
          "name": "account",
          "type": "address"
        },
        {
          "indexed": true,
          "internalType": "address",
          "name": "sender",
          "type": "address"
        }
      ],
      "name": "RoleRevoked",
      "type": "event"
    },
    {
      "anonymous": false,
      "inputs": [
        {
          "indexed": true,
          "internalType": "address",
          "name": "user",
          "type": "address"
        },
        {
          "indexed": true,
          "internalType": "uint256",
          "name": "assetId",
          "type": "uint256"
        },
        {
          "indexed": false,
          "internalType": "uint256",
          "name": "amount",
          "type": "uint256"
        },
        {
          "indexed": false,
          "internalType": "uint256",
          "name": "unlockTime",
          "type": "uint256"
        }
      ],
      "name": "SharesLocked",
      "type": "event"
    },
    {
      "anonymous": false,
      "inputs": [
        {
          "indexed": true,
          "internalType": "address",
          "name": "from",
          "type": "address"
        },
        {
          "indexed": true,
          "internalType": "address",
          "name": "to",
          "type": "address"
        },
        {
          "indexed": true,
          "internalType": "uint256",
          "name": "assetId",
          "type": "uint256"
        },
        {
          "indexed": false,
          "internalType": "uint256",
          "name": "amount",
          "type": "uint256"
        }
      ],
      "name": "SharesTransferred",
      "type": "event"
    },
    {
      "anonymous": false,
      "inputs": [
        {
          "indexed": true,
          "internalType": "address",
          "name": "user",
          "type": "address"
        },
        {
          "indexed": true,
          "internalType": "uint256",
          "name": "assetId",
          "type": "uint256"
        },
        {
          "indexed": false,
          "internalType": "uint256",
          "name": "amount",
          "type": "uint256"
        }
      ],
      "name": "SharesUnlocked",
      "type": "event"
    },
    {
      "anonymous": false,
      "inputs": [
        {
          "indexed": true,
          "internalType": "address",
          "name": "operator",
          "type": "address"
        },
        {
          "indexed": true,
          "internalType": "address",
          "name": "from",
          "type": "address"
        },
        {
          "indexed": true,
          "internalType": "address",
          "name": "to",
          "type": "address"
        },
        {
          "indexed": false,
          "internalType": "uint256[]",
          "name": "ids",
          "type": "uint256[]"
        },
        {
          "indexed": false,
          "internalType": "uint256[]",
          "name": "values",
          "type": "uint256[]"
        }
      ],
      "name": "TransferBatch",
      "type": "event"
    },
    {
      "anonymous": false,
      "inputs": [
        {
          "indexed": true,
          "internalType": "address",
          "name": "operator",
          "type": "address"
        },
        {
          "indexed": true,
          "internalType": "address",
          "name": "from",
          "type": "address"
        },
        {
          "indexed": true,
          "internalType": "address",
          "name": "to",
          "type": "address"
        },
        {
          "indexed": false,
          "internalType": "uint256",
          "name": "id",
          "type": "uint256"
        },
        {
          "indexed": false,
          "internalType": "uint256",
          "name": "value",
          "type": "uint256"
        }
      ],
      "name": "TransferSingle",
      "type": "event"
    },
    {
      "anonymous": false,
      "inputs": [
        {
          "indexed": false,
          "internalType": "string",
          "name": "value",
          "type": "string"
        },
        {
          "indexed": true,
          "internalType": "uint256",
          "name": "id",
          "type": "uint256"
        }
      ],
      "name": "URI",
      "type": "event"
    },
    {
      "anonymous": false,
      "inputs": [
        {
          "indexed": false,
          "internalType": "address",
          "name": "account",
          "type": "address"
        }
      ],
      "name": "Unpaused",
      "type": "event"
    },
    {
      "inputs": [],
      "name": "ADMIN_ROLE",
      "outputs": [
        {
          "internalType": "bytes32",
          "name": "",
          "type": "bytes32"
        }
      ],
      "stateMutability": "view",
      "type": "function"
    },
    {
      "inputs": [],
      "name": "DEFAULT_ADMIN_ROLE",
      "outputs": [
        {
          "internalType": "bytes32",
          "name": "",
          "type": "bytes32"
        }
      ],
      "stateMutability": "view",
      "type": "function"
    },
    {
      "inputs": [],
      "name": "EMERGENCY_ROLE",
      "outputs": [
        {
          "internalType": "bytes32",
          "name": "",
          "type": "bytes32"
        }
      ],
      "stateMutability": "view",
      "type": "function"
    },
    {
      "inputs": [
        {
          "internalType": "uint256",
          "name": "_requestId",
          "type": "uint256"
        }
      ],
      "name": "approveRequest",
      "outputs": [],
      "stateMutability": "nonpayable",
      "type": "function"
    },
    {
      "inputs": [
        {
          "internalType": "uint256",
          "name": "",
          "type": "uint256"
        }
      ],
      "name": "assetDetails",
      "outputs": [
        {
          "internalType": "uint256",
          "name": "tokenId",
          "type": "uint256"
        },
        {
          "internalType": "uint256",
          "name": "requestId",
          "type": "uint256"
        },
        {
          "internalType": "address",
          "name": "creator",
          "type": "address"
        },
        {
          "internalType": "uint256",
          "name": "totalSupply",
          "type": "uint256"
        },
        {
          "internalType": "uint256",
          "name": "availableSupply",
          "type": "uint256"
        },
        {
          "internalType": "uint256",
          "name": "pricePerFraction",
          "type": "uint256"
        },
        {
          "internalType": "uint256",
          "name": "minPurchaseAmount",
          "type": "uint256"
        },
        {
          "internalType": "uint256",
          "name": "maxPurchaseAmount",
          "type": "uint256"
        },
        {
          "internalType": "enum OPNFractionalization.ShareType",
          "name": "shareType",
          "type": "uint8"
        },
        {
          "internalType": "bool",
          "name": "isActive",
          "type": "bool"
        },
        {
          "internalType": "uint256",
          "name": "totalRevenue",
          "type": "uint256"
        }
      ],
      "stateMutability": "view",
      "type": "function"
    },
    {
      "inputs": [
        {
          "internalType": "address",
          "name": "account",
          "type": "address"
        },
        {
          "internalType": "uint256",
          "name": "id",
          "type": "uint256"
        }
      ],
      "name": "balanceOf",
      "outputs": [
        {
          "internalType": "uint256",
          "name": "",
          "type": "uint256"
        }
      ],
      "stateMutability": "view",
      "type": "function"
    },
    {
      "inputs": [
        {
          "internalType": "address[]",
          "name": "accounts",
          "type": "address[]"
        },
        {
          "internalType": "uint256[]",
          "name": "ids",
          "type": "uint256[]"
        }
      ],
      "name": "balanceOfBatch",
      "outputs": [
        {
          "internalType": "uint256[]",
          "name": "",
          "type": "uint256[]"
        }
      ],
      "stateMutability": "view",
      "type": "function"
    },
    {
      "inputs": [
        {
          "internalType": "uint256",
          "name": "_assetId",
          "type": "uint256"
        },
        {
          "internalType": "uint256",
          "name": "_shareAmount",
          "type": "uint256"
        }
      ],
      "name": "calculatePurchaseCost",
      "outputs": [
        {
          "internalType": "uint256",
          "name": "totalCost",
          "type": "uint256"
        },
        {
          "internalType": "uint256",
          "name": "platformFeeAmount",
          "type": "uint256"
        }
      ],
      "stateMutability": "view",
      "type": "function"
    },
    {
      "inputs": [
        {
          "internalType": "uint256",
          "name": "_requestId",
          "type": "uint256"
        }
      ],
      "name": "cancelRequest",
      "outputs": [],
      "stateMutability": "nonpayable",
      "type": "function"
    },
    {
      "inputs": [
        {
          "internalType": "string",
          "name": "_assetType",
          "type": "string"
        },
        {
          "internalType": "string",
          "name": "_assetName",
          "type": "string"
        },
        {
          "internalType": "string",
          "name": "_assetDescription",
          "type": "string"
        },
        {
          "internalType": "string",
          "name": "_assetImageUrl",
          "type": "string"
        },
        {
          "internalType": "uint256",
          "name": "_totalFractions",
          "type": "uint256"
        },
        {
          "internalType": "uint256",
          "name": "_pricePerFraction",
          "type": "uint256"
        },
        {
          "internalType": "uint256",
          "name": "_minPurchaseAmount",
          "type": "uint256"
        },
        {
          "internalType": "uint256",
          "name": "_maxPurchaseAmount",
          "type": "uint256"
        },
        {
          "internalType": "enum OPNFractionalization.ShareType",
          "name": "_shareType",
          "type": "uint8"
        }
      ],
      "name": "createFractionalizationRequest",
      "outputs": [
        {
          "internalType": "uint256",
          "name": "",
          "type": "uint256"
        }
      ],
      "stateMutability": "nonpayable",
      "type": "function"
    },
    {
      "inputs": [],
      "name": "feeRecipient",
      "outputs": [
        {
          "internalType": "address",
          "name": "",
          "type": "address"
        }
      ],
      "stateMutability": "view",
      "type": "function"
    },
    {
      "inputs": [],
      "name": "getActiveAssets",
      "outputs": [
        {
          "internalType": "uint256[]",
          "name": "",
          "type": "uint256[]"
        }
      ],
      "stateMutability": "view",
      "type": "function"
    },
    {
      "inputs": [
        {
          "internalType": "address",
          "name": "_user",
          "type": "address"
        },
        {
          "internalType": "uint256",
          "name": "_assetId",
          "type": "uint256"
        }
      ],
      "name": "getAvailableShares",
      "outputs": [
        {
          "internalType": "uint256",
          "name": "",
          "type": "uint256"
        }
      ],
      "stateMutability": "view",
      "type": "function"
    },
    {
      "inputs": [],
      "name": "getPendingRequests",
      "outputs": [
        {
          "internalType": "uint256[]",
          "name": "",
          "type": "uint256[]"
        }
      ],
      "stateMutability": "view",
      "type": "function"
    },
    {
      "inputs": [
        {
          "internalType": "bytes32",
          "name": "role",
          "type": "bytes32"
        }
      ],
      "name": "getRoleAdmin",
      "outputs": [
        {
          "internalType": "bytes32",
          "name": "",
          "type": "bytes32"
        }
      ],
      "stateMutability": "view",
      "type": "function"
    },
    {
      "inputs": [
        {
          "internalType": "address",
          "name": "_user",
          "type": "address"
        }
      ],
      "name": "getUserAssets",
      "outputs": [
        {
          "internalType": "uint256[]",
          "name": "",
          "type": "uint256[]"
        }
      ],
      "stateMutability": "view",
      "type": "function"
    },
    {
      "inputs": [
        {
          "internalType": "address",
          "name": "_user",
          "type": "address"
        },
        {
          "internalType": "uint256",
          "name": "_assetId",
          "type": "uint256"
        }
      ],
      "name": "getUserOwnershipPercentage",
      "outputs": [
        {
          "internalType": "uint256",
          "name": "percentage",
          "type": "uint256"
        },
        {
          "internalType": "uint256",
          "name": "shares",
          "type": "uint256"
        }
      ],
      "stateMutability": "view",
      "type": "function"
    },
    {
      "inputs": [
        {
          "internalType": "address",
          "name": "_user",
          "type": "address"
        }
      ],
      "name": "getUserRequests",
      "outputs": [
        {
          "internalType": "uint256[]",
          "name": "",
          "type": "uint256[]"
        }
      ],
      "stateMutability": "view",
      "type": "function"
    },
    {
      "inputs": [
        {
          "internalType": "address",
          "name": "_user",
          "type": "address"
        },
        {
          "internalType": "uint256",
          "name": "_assetId",
          "type": "uint256"
        }
      ],
      "name": "getUserShares",
      "outputs": [
        {
          "internalType": "uint256",
          "name": "",
          "type": "uint256"
        }
      ],
      "stateMutability": "view",
      "type": "function"
    },
    {
      "inputs": [
        {
          "internalType": "bytes32",
          "name": "role",
          "type": "bytes32"
        },
        {
          "internalType": "address",
          "name": "account",
          "type": "address"
        }
      ],
      "name": "grantRole",
      "outputs": [],
      "stateMutability": "nonpayable",
      "type": "function"
    },
    {
      "inputs": [
        {
          "internalType": "bytes32",
          "name": "role",
          "type": "bytes32"
        },
        {
          "internalType": "address",
          "name": "account",
          "type": "address"
        }
      ],
      "name": "hasRole",
      "outputs": [
        {
          "internalType": "bool",
          "name": "",
          "type": "bool"
        }
      ],
      "stateMutability": "view",
      "type": "function"
    },
    {
      "inputs": [],
      "name": "isAlphaMode",
      "outputs": [
        {
          "internalType": "bool",
          "name": "",
          "type": "bool"
        }
      ],
      "stateMutability": "view",
      "type": "function"
    },
    {
      "inputs": [
        {
          "internalType": "address",
          "name": "account",
          "type": "address"
        },
        {
          "internalType": "address",
          "name": "operator",
          "type": "address"
        }
      ],
      "name": "isApprovedForAll",
      "outputs": [
        {
          "internalType": "bool",
          "name": "",
          "type": "bool"
        }
      ],
      "stateMutability": "view",
      "type": "function"
    },
    {
      "inputs": [
        {
          "internalType": "uint256",
          "name": "_assetId",
          "type": "uint256"
        },
        {
          "internalType": "uint256",
          "name": "_amount",
          "type": "uint256"
        },
        {
          "internalType": "uint256",
          "name": "_lockDuration",
          "type": "uint256"
        }
      ],
      "name": "lockShares",
      "outputs": [],
      "stateMutability": "nonpayable",
      "type": "function"
    },
    {
      "inputs": [
        {
          "internalType": "address",
          "name": "",
          "type": "address"
        },
        {
          "internalType": "address",
          "name": "",
          "type": "address"
        },
        {
          "internalType": "uint256[]",
          "name": "",
          "type": "uint256[]"
        },
        {
          "internalType": "uint256[]",
          "name": "",
          "type": "uint256[]"
        },
        {
          "internalType": "bytes",
          "name": "",
          "type": "bytes"
        }
      ],
      "name": "onERC1155BatchReceived",
      "outputs": [
        {
          "internalType": "bytes4",
          "name": "",
          "type": "bytes4"
        }
      ],
      "stateMutability": "nonpayable",
      "type": "function"
    },
    {
      "inputs": [
        {
          "internalType": "address",
          "name": "",
          "type": "address"
        },
        {
          "internalType": "address",
          "name": "",
          "type": "address"
        },
        {
          "internalType": "uint256",
          "name": "",
          "type": "uint256"
        },
        {
          "internalType": "uint256",
          "name": "",
          "type": "uint256"
        },
        {
          "internalType": "bytes",
          "name": "",
          "type": "bytes"
        }
      ],
      "name": "onERC1155Received",
      "outputs": [
        {
          "internalType": "bytes4",
          "name": "",
          "type": "bytes4"
        }
      ],
      "stateMutability": "nonpayable",
      "type": "function"
    },
    {
      "inputs": [],
      "name": "pause",
      "outputs": [],
      "stateMutability": "nonpayable",
      "type": "function"
    },
    {
      "inputs": [],
      "name": "paused",
      "outputs": [
        {
          "internalType": "bool",
          "name": "",
          "type": "bool"
        }
      ],
      "stateMutability": "view",
      "type": "function"
    },
    {
      "inputs": [],
      "name": "platformFee",
      "outputs": [
        {
          "internalType": "uint256",
          "name": "",
          "type": "uint256"
        }
      ],
      "stateMutability": "view",
      "type": "function"
    },
    {
      "inputs": [
        {
          "internalType": "uint256",
          "name": "_assetId",
          "type": "uint256"
        },
        {
          "internalType": "uint256",
          "name": "_shareAmount",
          "type": "uint256"
        },
        {
          "internalType": "uint256",
          "name": "_maxPricePerShare",
          "type": "uint256"
        }
      ],
      "name": "purchaseShares",
      "outputs": [],
      "stateMutability": "payable",
      "type": "function"
    },
    {
      "inputs": [
        {
          "internalType": "uint256",
          "name": "_requestId",
          "type": "uint256"
        },
        {
          "internalType": "string",
          "name": "_reason",
          "type": "string"
        }
      ],
      "name": "rejectRequest",
      "outputs": [],
      "stateMutability": "nonpayable",
      "type": "function"
    },
    {
      "inputs": [
        {
          "internalType": "bytes32",
          "name": "role",
          "type": "bytes32"
        },
        {
          "internalType": "address",
          "name": "account",
          "type": "address"
        }
      ],
      "name": "renounceRole",
      "outputs": [],
      "stateMutability": "nonpayable",
      "type": "function"
    },
    {
      "inputs": [
        {
          "internalType": "uint256",
          "name": "",
          "type": "uint256"
        }
      ],
      "name": "requests",
      "outputs": [
        {
          "internalType": "uint256",
          "name": "requestId",
          "type": "uint256"
        },
        {
          "internalType": "address",
          "name": "proposer",
          "type": "address"
        },
        {
          "internalType": "string",
          "name": "assetType",
          "type": "string"
        },
        {
          "internalType": "string",
          "name": "assetName",
          "type": "string"
        },
        {
          "internalType": "string",
          "name": "assetDescription",
          "type": "string"
        },
        {
          "internalType": "string",
          "name": "assetImageUrl",
          "type": "string"
        },
        {
          "internalType": "uint256",
          "name": "totalFractions",
          "type": "uint256"
        },
        {
          "internalType": "uint256",
          "name": "pricePerFraction",
          "type": "uint256"
        },
        {
          "internalType": "uint256",
          "name": "minPurchaseAmount",
          "type": "uint256"
        },
        {
          "internalType": "uint256",
          "name": "maxPurchaseAmount",
          "type": "uint256"
        },
        {
          "internalType": "enum OPNFractionalization.ShareType",
          "name": "shareType",
          "type": "uint8"
        },
        {
          "internalType": "enum OPNFractionalization.RequestStatus",
          "name": "status",
          "type": "uint8"
        },
        {
          "internalType": "uint256",
          "name": "tokenId",
          "type": "uint256"
        },
        {
          "internalType": "uint256",
          "name": "timestamp",
          "type": "uint256"
        }
      ],
      "stateMutability": "view",
      "type": "function"
    },
    {
      "inputs": [
        {
          "internalType": "bytes32",
          "name": "role",
          "type": "bytes32"
        },
        {
          "internalType": "address",
          "name": "account",
          "type": "address"
        }
      ],
      "name": "revokeRole",
      "outputs": [],
      "stateMutability": "nonpayable",
      "type": "function"
    },
    {
      "inputs": [
        {
          "internalType": "address",
          "name": "from",
          "type": "address"
        },
        {
          "internalType": "address",
          "name": "to",
          "type": "address"
        },
        {
          "internalType": "uint256[]",
          "name": "ids",
          "type": "uint256[]"
        },
        {
          "internalType": "uint256[]",
          "name": "amounts",
          "type": "uint256[]"
        },
        {
          "internalType": "bytes",
          "name": "data",
          "type": "bytes"
        }
      ],
      "name": "safeBatchTransferFrom",
      "outputs": [],
      "stateMutability": "nonpayable",
      "type": "function"
    },
    {
      "inputs": [
        {
          "internalType": "address",
          "name": "from",
          "type": "address"
        },
        {
          "internalType": "address",
          "name": "to",
          "type": "address"
        },
        {
          "internalType": "uint256",
          "name": "id",
          "type": "uint256"
        },
        {
          "internalType": "uint256",
          "name": "amount",
          "type": "uint256"
        },
        {
          "internalType": "bytes",
          "name": "data",
          "type": "bytes"
        }
      ],
      "name": "safeTransferFrom",
      "outputs": [],
      "stateMutability": "nonpayable",
      "type": "function"
    },
    {
      "inputs": [
        {
          "internalType": "address",
          "name": "operator",
          "type": "address"
        },
        {
          "internalType": "bool",
          "name": "approved",
          "type": "bool"
        }
      ],
      "name": "setApprovalForAll",
      "outputs": [],
      "stateMutability": "nonpayable",
      "type": "function"
    },
    {
      "inputs": [
        {
          "internalType": "address",
          "name": "",
          "type": "address"
        },
        {
          "internalType": "uint256",
          "name": "",
          "type": "uint256"
        }
      ],
      "name": "shareLocks",
      "outputs": [
        {
          "internalType": "uint256",
          "name": "amount",
          "type": "uint256"
        },
        {
          "internalType": "uint256",
          "name": "unlockTime",
          "type": "uint256"
        }
      ],
      "stateMutability": "view",
      "type": "function"
    },
    {
      "inputs": [
        {
          "internalType": "bytes4",
          "name": "interfaceId",
          "type": "bytes4"
        }
      ],
      "name": "supportsInterface",
      "outputs": [
        {
          "internalType": "bool",
          "name": "",
          "type": "bool"
        }
      ],
      "stateMutability": "view",
      "type": "function"
    },
    {
      "inputs": [
        {
          "internalType": "address",
          "name": "_to",
          "type": "address"
        },
        {
          "internalType": "uint256",
          "name": "_assetId",
          "type": "uint256"
        },
        {
          "internalType": "uint256",
          "name": "_amount",
          "type": "uint256"
        }
      ],
      "name": "transferShares",
      "outputs": [],
      "stateMutability": "nonpayable",
      "type": "function"
    },
    {
      "inputs": [
        {
          "internalType": "uint256",
          "name": "_assetId",
          "type": "uint256"
        }
      ],
      "name": "unlockShares",
      "outputs": [],
      "stateMutability": "nonpayable",
      "type": "function"
    },
    {
      "inputs": [],
      "name": "unpause",
      "outputs": [],
      "stateMutability": "nonpayable",
      "type": "function"
    },
    {
      "inputs": [
        {
          "internalType": "address",
          "name": "_newRecipient",
          "type": "address"
        }
      ],
      "name": "updateFeeRecipient",
      "outputs": [],
      "stateMutability": "nonpayable",
      "type": "function"
    },
    {
      "inputs": [
        {
          "internalType": "uint256",
          "name": "_newFee",
          "type": "uint256"
        }
      ],
      "name": "updatePlatformFee",
      "outputs": [],
      "stateMutability": "nonpayable",
      "type": "function"
    },
    {
      "inputs": [
        {
          "internalType": "uint256",
          "name": "",
          "type": "uint256"
        }
      ],
      "name": "uri",
      "outputs": [
        {
          "internalType": "string",
          "name": "",
          "type": "string"
        }
      ],
      "stateMutability": "view",
      "type": "function"
    },
    {
      "inputs": [
        {
          "internalType": "address",
          "name": "",
          "type": "address"
        },
        {
          "internalType": "uint256",
          "name": "",
          "type": "uint256"
        }
      ],
      "name": "userRequests",
      "outputs": [
        {
          "internalType": "uint256",
          "name": "",
          "type": "uint256"
        }
      ],
      "stateMutability": "view",
      "type": "function"
    },
    {
      "inputs": [
        {
          "internalType": "address",
          "name": "",
          "type": "address"
        },
        {
          "internalType": "uint256",
          "name": "",
          "type": "uint256"
        }
      ],
      "name": "userShares",
      "outputs": [
        {
          "internalType": "uint256",
          "name": "",
          "type": "uint256"
        }
      ],
      "stateMutability": "view",
      "type": "function"
    }
  ],
  "bytecode": "0x608060405260fa6006553480156200001657600080fd5b50604051620047d1380380620047d1833981016040819052620000399162000221565b81620000458162000138565b5060016004556005805460ff191690556001600160a01b038116620000b05760405162461bcd60e51b815260206004820152601560248201527f496e76616c69642066656520726563697069656e740000000000000000000000604482015260640160405180910390fd5b600780546001600160a01b0319166001600160a01b038316179055620000d86000336200014a565b620001047fa49807205ce4d355092ef5a8a18f56e8913cf4a201fbe287825b095693c21775336200014a565b620001307fbf233dd2aafeb4d50879c4aa5c81e96d92f6e6945c906a58f9f2d1c1631b4b26336200014a565b505062000464565b600262000146828262000398565b5050565b60008281526003602090815260408083206001600160a01b038516845290915290205460ff16620001465760008281526003602090815260408083206001600160a01b03851684529091529020805460ff19166001179055620001aa3390565b6001600160a01b0316816001600160a01b0316837f2f8788117e7eff1d82e926ec794901d17c78024a50270940304540a733656f0d60405160405180910390a45050565b634e487b7160e01b600052604160045260246000fd5b80516001600160a01b03811681146200021c57600080fd5b919050565b600080604083850312156200023557600080fd5b82516001600160401b03808211156200024d57600080fd5b818501915085601f8301126200026257600080fd5b815181811115620002775762000277620001ee565b604051601f8201601f19908116603f01168101908382118183101715620002a257620002a2620001ee565b81604052828152602093508884848701011115620002bf57600080fd5b600091505b82821015620002e35784820184015181830185015290830190620002c4565b6000848483010152809650505050620002fe81860162000204565b925050509250929050565b600181811c908216806200031e57607f821691505b6020821081036200033f57634e487b7160e01b600052602260045260246000fd5b50919050565b601f8211156200039357600081815260208120601f850160051c810160208610156200036e5750805b601f850160051c820191505b818110156200038f578281556001016200037a565b5050505b505050565b81516001600160401b03811115620003b457620003b4620001ee565b620003cc81620003c5845462000309565b8462000345565b602080601f831160018114620004045760008415620003eb5750858301515b600019600386901b1c1916600185901b1785556200038f565b600085815260208120601f198616915b82811015620004355788860151825594840194600190910190840162000414565b5085821015620004545787850151600019600388901b60f8161c191681555b5050505050600190811b01905550565b61435d80620004746000396000f3fe6080604052600436106102875760003560e01c806381d12c581161015a578063d547741f116100c1578063ee0313731161007a578063ee031373146108fa578063f160d3691461091a578063f23a6e611461093a578063f242432a14610966578063f389885014610986578063fa383ba1146109c557600080fd5b8063d547741f146107d6578063d7d1bbdb146107f6578063ddd9d04514610816578063e53dc68014610859578063e985e9c514610891578063e99cf2c6146108da57600080fd5b8063a4d0ea6111610113578063a4d0ea6114610682578063aa0b5988146106a2578063aa93b128146106c2578063b337cf74146106d7578063bc197c81146106f7578063c39675281461073c57600080fd5b806381d12c58146105cb5780638456cb591461060557806391d148541461061a57806399bc4d961461063a578063a217fddf1461064d578063a22cb4651461066257600080fd5b80632eb2c2d6116101fe5780634e1273f4116101b75780634e1273f41461051c5780635c975abb1461053c57806375b238fc14610554578063765587e214610576578063765ff0611461059657806380a1f712146105b657600080fd5b80632eb2c2d61461044f5780632f2ff15d1461046f5780633015394c1461048f57806336568abe146104af5780633f4ba83a146104cf57806346904840146104e457600080fd5b80630e89341c116102505780630e89341c146103665780630fd8aee81461039357806320df4359146103b5578063248a9ca3146103e957806326232a2e14610419578063263cb6b61461042f57600080fd5b8062fdd58e1461028c57806301ffc9a7146102bf578063033bab25146102ef578063086f0208146103245780630a5505dd14610344575b600080fd5b34801561029857600080fd5b506102ac6102a7366004613587565b6109e5565b6040519081526020015b60405180910390f35b3480156102cb57600080fd5b506102df6102da3660046135c7565b610a7e565b60405190151581526020016102b6565b3480156102fb57600080fd5b5061030f61030a3660046135e4565b610a89565b604080519283526020830191909152016102b6565b34801561033057600080fd5b506102ac61033f366004613587565b610bac565b34801561035057600080fd5b5061036461035f3660046136bb565b610c2c565b005b34801561037257600080fd5b506103866103813660046136f7565b610cf0565b6040516102b69190613760565b34801561039f57600080fd5b506103a8610d84565b6040516102b691906137ae565b3480156103c157600080fd5b506102ac7fbf233dd2aafeb4d50879c4aa5c81e96d92f6e6945c906a58f9f2d1c1631b4b2681565b3480156103f557600080fd5b506102ac6104043660046136f7565b60009081526003602052604090206001015490565b34801561042557600080fd5b506102ac60065481565b34801561043b57600080fd5b506102ac61044a366004613587565b610ddc565b34801561045b57600080fd5b5061036461046a366004613855565b610e0d565b34801561047b57600080fd5b5061036461048a3660046138fe565b610e59565b34801561049b57600080fd5b506103646104aa3660046136f7565b610e83565b3480156104bb57600080fd5b506103646104ca3660046138fe565b610f64565b3480156104db57600080fd5b50610364610fe2565b3480156104f057600080fd5b50600754610504906001600160a01b031681565b6040516001600160a01b0390911681526020016102b6565b34801561052857600080fd5b506103a861053736600461392a565b611017565b34801561054857600080fd5b5060055460ff166102df565b34801561056057600080fd5b506102ac60008051602061430883398151915281565b34801561058257600080fd5b506103646105913660046139ea565b611138565b3480156105a257600080fd5b506103a86105b1366004613a16565b611266565b3480156105c257600080fd5b506103a86113ee565b3480156105d757600080fd5b506105eb6105e63660046136f7565b611444565b6040516102b69e9d9c9b9a99989796959493929190613a6b565b34801561061157600080fd5b506103646116dc565b34801561062657600080fd5b506102df6106353660046138fe565b61170e565b6103646106483660046139ea565b611739565b34801561065957600080fd5b506102ac600081565b34801561066e57600080fd5b5061036461067d366004613b26565b611b63565b34801561068e57600080fd5b506102ac61069d366004613b71565b611b6e565b3480156106ae57600080fd5b506103646106bd3660046136f7565b611f41565b3480156106ce57600080fd5b506102df600181565b3480156106e357600080fd5b506103a86106f2366004613a16565b611fe0565b34801561070357600080fd5b50610723610712366004613855565b63bc197c8160e01b95945050505050565b6040516001600160e01b031990911681526020016102b6565b34801561074857600080fd5b506107bf6107573660046136f7565b600b602052600090815260409020805460018201546002830154600384015460048501546005860154600687015460078801546008890154600990990154979896976001600160a01b03909616969495939492939192909160ff80831692610100900416908b565b6040516102b69b9a99989796959493929190613c55565b3480156107e257600080fd5b506103646107f13660046138fe565b61204b565b34801561080257600080fd5b506103646108113660046136f7565b612070565b34801561082257600080fd5b506102ac610831366004613587565b6001600160a01b03919091166000908152600d60209081526040808320938352929052205490565b34801561086557600080fd5b506102ac610874366004613587565b600d60209081526000928352604080842090915290825290205481565b34801561089d57600080fd5b506102df6108ac366004613cbf565b6001600160a01b03918216600090815260016020908152604080832093909416825291909152205460ff1690565b3480156108e657600080fd5b506103646108f5366004613ce9565b612113565b34801561090657600080fd5b506103646109153660046136f7565b612382565b34801561092657600080fd5b50610364610935366004613a16565b61247f565b34801561094657600080fd5b50610723610955366004613d1c565b63f23a6e6160e01b95945050505050565b34801561097257600080fd5b50610364610981366004613d1c565b612534565b34801561099257600080fd5b5061030f6109a1366004613587565b600e6020908152600092835260408084209091529082529020805460019091015482565b3480156109d157600080fd5b5061030f6109e0366004613587565b612579565b60006001600160a01b038316610a555760405162461bcd60e51b815260206004820152602a60248201527f455243313135353a2061646472657373207a65726f206973206e6f742061207660448201526930b634b21037bbb732b960b11b60648201526084015b60405180910390fd5b506000818152602081815260408083206001600160a01b03861684529091529020545b92915050565b6000610a78826125de565b6000828152600b602052604081206008810154829190610100900460ff16610ae65760405162461bcd60e51b815260206004820152601060248201526f4173736574206e6f742061637469766560801b6044820152606401610a4c565b60008411610b2b5760405162461bcd60e51b81526020600482015260126024820152710416d6f756e74206d757374206265203e20360741b6044820152606401610a4c565b8060040154841115610b755760405162461bcd60e51b8152602060048201526013602482015272496e73756666696369656e7420737570706c7960681b6044820152606401610a4c565b838160050154610b859190613d96565b925061271060065484610b989190613d96565b610ba29190613dad565b9150509250929050565b6001600160a01b0382166000818152600d60209081526040808320858452825280832054938352600e82528083208584529091528120600181015491929115801590610bfb5750806001015442105b15610c245780548211610c0f576000610c1b565b8054610c1b9083613dcf565b92505050610a78565b509392505050565b600080516020614308833981519152610c4481612603565b6000838152600a6020526040812090600a820154610100900460ff166003811115610c7157610c71613a31565b14610c8e5760405162461bcd60e51b8152600401610a4c90613de2565b600a8101805461ff001916610200179055610ca88461260d565b336001600160a01b0316847fb581c46923895d741b6fce4d5ce84022b6a0566f8a6263e243531a0843f2969785604051610ce29190613760565b60405180910390a350505050565b606060028054610cff90613e07565b80601f0160208091040260200160405190810160405280929190818152602001828054610d2b90613e07565b8015610d785780601f10610d4d57610100808354040283529160200191610d78565b820191906000526020600020905b815481529060010190602001808311610d5b57829003601f168201915b50505050509050919050565b6060600f805480602002602001604051908101604052809291908181526020018280548015610dd257602002820191906000526020600020905b815481526020019060010190808311610dbe575b5050505050905090565b600c6020528160005260406000208181548110610df857600080fd5b90600052602060002001600091509150505481565b6001600160a01b038516331480610e295750610e2985336108ac565b610e455760405162461bcd60e51b8152600401610a4c90613e41565b610e5285858585856126c5565b5050505050565b600082815260036020526040902060010154610e7481612603565b610e7e83836128a2565b505050565b6000818152600a6020526040902060018101546001600160a01b03163314610edc5760405162461bcd60e51b815260206004820152600c60248201526b2737ba10383937b837b9b2b960a11b6044820152606401610a4c565b6000600a820154610100900460ff166003811115610efc57610efc613a31565b14610f195760405162461bcd60e51b8152600401610a4c90613de2565b600a8101805461ff001916610300179055610f338261260d565b604051339083907fe0d7665e06e7db1fc500d66d4e3898d1d4a5533d7efe54b352fcdaa177c2278390600090a35050565b6001600160a01b0381163314610fd45760405162461bcd60e51b815260206004820152602f60248201527f416363657373436f6e74726f6c3a2063616e206f6e6c792072656e6f756e636560448201526e103937b632b9903337b91039b2b63360891b6064820152608401610a4c565b610fde8282612928565b5050565b7fbf233dd2aafeb4d50879c4aa5c81e96d92f6e6945c906a58f9f2d1c1631b4b2661100c81612603565b61101461298f565b50565b6060815183511461107c5760405162461bcd60e51b815260206004820152602960248201527f455243313135353a206163636f756e747320616e6420696473206c656e677468604482015268040dad2e6dac2e8c6d60bb1b6064820152608401610a4c565b600083516001600160401b0381111561109757611097613606565b6040519080825280602002602001820160405280156110c0578160200160208202803683370190505b50905060005b8451811015610c245761110b8582815181106110e4576110e4613e8f565b60200260200101518583815181106110fe576110fe613e8f565b60200260200101516109e5565b82828151811061111d5761111d613e8f565b602090810291909101015261113181613ea5565b90506110c6565b6111406129e1565b336000908152600d602090815260408083208684529091529020548211156111a15760405162461bcd60e51b8152602060048201526014602482015273496e73756666696369656e742062616c616e636560601b6044820152606401610a4c565b600081116111e85760405162461bcd60e51b815260206004820152601460248201527304475726174696f6e206d757374206265203e20360641b6044820152606401610a4c565b60006111f48242613ebe565b6040805180820182528581526020808201848152336000818152600e84528581208b825284528590209351845590516001909301929092558251878152908101849052929350869290917f072e61b58de0f903eb598894200dfbc43fd31fa02d1dd5a39fdbc721d260ba979101610ce2565b60606000805b600f548110156112e5576001600160a01b0384166000908152600d60205260408120600f8054839190859081106112a5576112a5613e8f565b906000526020600020015481526020019081526020016000205411156112d357816112cf81613ea5565b9250505b806112dd81613ea5565b91505061126c565b506000816001600160401b0381111561130057611300613606565b604051908082528060200260200182016040528015611329578160200160208202803683370190505b5090506000805b600f548110156113e4576001600160a01b0386166000908152600d60205260408120600f80548391908590811061136957611369613e8f565b906000526020600020015481526020019081526020016000205411156113d257600f818154811061139c5761139c613e8f565b90600052602060002001548383815181106113b9576113b9613e8f565b6020908102919091010152816113ce81613ea5565b9250505b806113dc81613ea5565b915050611330565b5090949350505050565b60606010805480602002602001604051908101604052809291908181526020018280548015610dd25760200282019190600052602060002090815481526020019060010190808311610dbe575050505050905090565b600a6020526000908152604090208054600182015460028301805492936001600160a01b039092169261147690613e07565b80601f01602080910402602001604051908101604052809291908181526020018280546114a290613e07565b80156114ef5780601f106114c4576101008083540402835291602001916114ef565b820191906000526020600020905b8154815290600101906020018083116114d257829003601f168201915b50505050509080600301805461150490613e07565b80601f016020809104026020016040519081016040528092919081815260200182805461153090613e07565b801561157d5780601f106115525761010080835404028352916020019161157d565b820191906000526020600020905b81548152906001019060200180831161156057829003601f168201915b50505050509080600401805461159290613e07565b80601f01602080910402602001604051908101604052809291908181526020018280546115be90613e07565b801561160b5780601f106115e05761010080835404028352916020019161160b565b820191906000526020600020905b8154815290600101906020018083116115ee57829003601f168201915b50505050509080600501805461162090613e07565b80601f016020809104026020016040519081016040528092919081815260200182805461164c90613e07565b80156116995780601f1061166e57610100808354040283529160200191611699565b820191906000526020600020905b81548152906001019060200180831161167c57829003601f168201915b5050506006840154600785015460088601546009870154600a880154600b890154600c90990154979894979396509194509260ff8083169361010090930416918e565b7fbf233dd2aafeb4d50879c4aa5c81e96d92f6e6945c906a58f9f2d1c1631b4b2661170681612603565b611014612a29565b60009182526003602090815260408084206001600160a01b0393909316845291905290205460ff1690565b611741612a66565b6117496129e1565b6000838152600b602052604090206008810154610100900460ff166117a35760405162461bcd60e51b815260206004820152601060248201526f4173736574206e6f742061637469766560801b6044820152606401610a4c565b600083116117e85760405162461bcd60e51b81526020600482015260126024820152710416d6f756e74206d757374206265203e20360741b6044820152606401610a4c565b80600401548311156118325760405162461bcd60e51b8152602060048201526013602482015272496e73756666696369656e7420737570706c7960681b6044820152606401610a4c565b818160050154111561187e5760405162461bcd60e51b815260206004820152601560248201527450726963652065786365656473206d6178696d756d60581b6044820152606401610a4c565b6006810154156118d55780600601548310156118d55760405162461bcd60e51b815260206004820152601660248201527542656c6f77206d696e696d756d20707572636861736560501b6044820152606401610a4c565b60078101541561195957336000908152600d6020908152604080832087845290915290205460078201546119098583613ebe565b11156119575760405162461bcd60e51b815260206004820152601860248201527f45786365656473206d6178696d756d20706572207573657200000000000000006044820152606401610a4c565b505b600083826005015461196b9190613d96565b90506000612710600654836119809190613d96565b61198a9190613dad565b905060006119988284613dcf565b9050823410156119e15760405162461bcd60e51b8152602060048201526014602482015273125b9cdd59999a58da595b9d081c185e5b595b9d60621b6044820152606401610a4c565b6007546040516001600160a01b039091169083156108fc029084906000818181858888f19350505050158015611a1b573d6000803e3d6000fd5b5060028401546040516001600160a01b039091169082156108fc029083906000818181858888f19350505050158015611a58573d6000803e3d6000fd5b50611a753033898960405180602001604052806000815250612abf565b85846004016000828254611a899190613dcf565b9250508190555082846009016000828254611aa49190613ebe565b9091555050336000908152600d602090815260408083208a845290915281208054889290611ad3908490613ebe565b909155505034831015611b1857336108fc611aee8534613dcf565b6040518115909202916000818181858888f19350505050158015611b16573d6000803e3d6000fd5b505b6040805187815260208101859052339189917f4baafac02d651b8886d3212cc69aff0fb3c687080a4fe86b0674563ac1493e82910160405180910390a350505050610e7e6001600455565b610fde338383612be9565b6000611b786129e1565b60008611611bc85760405162461bcd60e51b815260206004820152601b60248201527f546f74616c206672616374696f6e73206d757374206265203e203000000000006044820152606401610a4c565b60008511611c0c5760405162461bcd60e51b815260206004820152601160248201527005072696365206d757374206265203e203607c1b6044820152606401610a4c565b6000895111611c535760405162461bcd60e51b8152602060048201526013602482015272105cdcd95d081b985b59481c995c5d5a5c9959606a1b6044820152606401610a4c565b8215611ce55785831115611ca95760405162461bcd60e51b815260206004820152601a60248201527f4d6178207075726368617365206578636565647320746f74616c0000000000006044820152606401610a4c565b82841115611ce55760405162461bcd60e51b815260206004820152600960248201526809ad2dc407c409ac2f60bb1b6044820152606401610a4c565b600880549081906000611cf783613ea5565b9190505550604051806101c00160405280828152602001336001600160a01b031681526020018c81526020018b81526020018a8152602001898152602001888152602001878152602001868152602001858152602001846001811115611d5f57611d5f613a31565b8152602001600081526000602080830182905242604093840152848252600a81529082902083518155908301516001820180546001600160a01b0319166001600160a01b03909216919091179055908201516002820190611dc09082613f17565b5060608201516003820190611dd59082613f17565b5060808201516004820190611dea9082613f17565b5060a08201516005820190611dff9082613f17565b5060c0820151600682015560e0820151600782015561010082015160088201556101208201516009820155610140820151600a8201805460ff191660018381811115611e4d57611e4d613a31565b0217905550610160820151600a8201805461ff001916610100836003811115611e7857611e78613a31565b0217905550610180820151600b8201556101a090910151600c91820155336000818152602092835260408082208054600181810183559184529483209094018590556010805494850181559091527f1b6847dc741a1b0cd08d278845f9d819d87b734759afb55fe2de5cb82a9ae672909201839055905182907f095f0a4579226e257a354c43f6b865de82b40c69eaf778eb1355ec8df0cb50f790611f22908e908c908c90613fd6565b60405180910390a3611f3381612cc1565b9a9950505050505050505050565b600080516020614308833981519152611f5981612603565b6103e8821115611f9a5760405162461bcd60e51b815260206004820152600c60248201526b08ccaca40e8dede40d0d2ced60a31b6044820152606401610a4c565b600680549083905560408051828152602081018590527fd347e206f25a89b917fc9482f1a2d294d749baa4dc9bde7fb495ee11fe491643910160405180910390a1505050565b6001600160a01b0381166000908152600c6020908152604091829020805483518184028101840190945280845260609392830182828015610d7857602002820191906000526020600020905b81548152602001906001019080831161202c5750505050509050919050565b60008281526003602052604090206001015461206681612603565b610e7e8383612928565b60008051602061430883398151915261208881612603565b6000828152600a6020526040812090600a820154610100900460ff1660038111156120b5576120b5613a31565b146120d25760405162461bcd60e51b8152600401610a4c90613de2565b6120db83612cc1565b600b81015460405133919085907f95a32afb427792742cc220be9f73dc6821ec4341a909dbab96d577dc7a8a738a90600090a4505050565b61211b612a66565b6121236129e1565b6001600160a01b03831661216d5760405162461bcd60e51b8152602060048201526011602482015270125b9d985b1a59081c9958da5c1a595b9d607a1b6044820152606401610a4c565b336000908152600d602090815260408083208584529091529020548111156121ce5760405162461bcd60e51b8152602060048201526014602482015273496e73756666696369656e742062616c616e636560601b6044820152606401610a4c565b336000908152600e6020908152604080832085845290915290206001810154156122b25780600101544210156122365760405162461bcd60e51b815260206004820152600d60248201526c14da185c995cc81b1bd8dad959609a1b6044820152606401610a4c565b8054336000908152600d60209081526040808320878452909152812054909161225e91613dcf565b9050808311156122b05760405162461bcd60e51b815260206004820152601760248201527f416d6f756e74206578636565647320756e6c6f636b65640000000000000000006044820152606401610a4c565b505b6122ce3385858560405180602001604052806000815250612abf565b336000908152600d60209081526040808320868452909152812080548492906122f8908490613dcf565b90915550506001600160a01b0384166000908152600d6020908152604080832086845290915281208054849290612330908490613ebe565b909155505060405182815283906001600160a01b0386169033907f1ba44e8b79687fed555749cae6dcccf9bc5df37a2739fbc73062f07b534cf03e9060200160405180910390a450610e7e6001600455565b336000908152600e60209081526040808320848452909152902060018101546123dd5760405162461bcd60e51b815260206004820152600d60248201526c139bc81b1bd8dac8199bdd5b99609a1b6044820152606401610a4c565b80600101544210156124205760405162461bcd60e51b815260206004820152600c60248201526b14dd1a5b1b081b1bd8dad95960a21b6044820152606401610a4c565b8054336000818152600e6020908152604080832087845282528083208381556001019290925590518381528592917fb018ed4ec92b38533c94560fb932f36a92ecdb6fc6e3b05a4e4b60049881679591015b60405180910390a3505050565b60008051602061430883398151915261249781612603565b6001600160a01b0382166124e15760405162461bcd60e51b8152602060048201526011602482015270125b9d985b1a59081c9958da5c1a595b9d607a1b6044820152606401610a4c565b600780546001600160a01b038481166001600160a01b0319831681179093556040519116919082907faaebcf1bfa00580e41d966056b48521fa9f202645c86d4ddf28113e617c1b1d390600090a3505050565b6001600160a01b038516331480612550575061255085336108ac565b61256c5760405162461bcd60e51b8152600401610a4c90613e41565b610e528585858585612abf565b6000818152600b602090815260408083206001600160a01b0386168452600d835281842085855290925282205460038201549091906125b95760006125d4565b60038101546125ca83612710613d96565b6125d49190613dad565b9250509250929050565b60006001600160e01b03198216637965db0b60e01b1480610a785750610a7882612f2b565b6110148133612f50565b60005b601054811015610fde57816010828154811061262e5761262e613e8f565b9060005260206000200154036126b3576010805461264e90600190613dcf565b8154811061265e5761265e613e8f565b90600052602060002001546010828154811061267c5761267c613e8f565b600091825260209091200155601080548061269957612699613ffb565b600190038181906000526020600020016000905590555050565b806126bd81613ea5565b915050612610565b81518351146127275760405162461bcd60e51b815260206004820152602860248201527f455243313135353a2069647320616e6420616d6f756e7473206c656e677468206044820152670dad2e6dac2e8c6d60c31b6064820152608401610a4c565b6001600160a01b03841661274d5760405162461bcd60e51b8152600401610a4c90614011565b3360005b845181101561283457600085828151811061276e5761276e613e8f565b60200260200101519050600085838151811061278c5761278c613e8f565b602090810291909101810151600084815280835260408082206001600160a01b038e1683529093529190912054909150818110156127dc5760405162461bcd60e51b8152600401610a4c90614056565b6000838152602081815260408083206001600160a01b038e8116855292528083208585039055908b16825281208054849290612819908490613ebe565b925050819055505050508061282d90613ea5565b9050612751565b50846001600160a01b0316866001600160a01b0316826001600160a01b03167f4a39dc06d4c0dbc64b70af90fd698a233a518aa5d07e595d983b8c0526c8f7fb87876040516128849291906140a0565b60405180910390a461289a818787878787612fa9565b505050505050565b6128ac828261170e565b610fde5760008281526003602090815260408083206001600160a01b03851684529091529020805460ff191660011790556128e43390565b6001600160a01b0316816001600160a01b0316837f2f8788117e7eff1d82e926ec794901d17c78024a50270940304540a733656f0d60405160405180910390a45050565b612932828261170e565b15610fde5760008281526003602090815260408083206001600160a01b0385168085529252808320805460ff1916905551339285917ff6391f5c32d9c69d2a47ea670b442974b53935d1edc7fd64eb21e047a839171b9190a45050565b61299761310d565b6005805460ff191690557f5db9ee0a495bf2e6ff9c91a7834c1ba4fdd244a5e8aa4e537bd38aeae4b073aa335b6040516001600160a01b03909116815260200160405180910390a1565b60055460ff1615612a275760405162461bcd60e51b815260206004820152601060248201526f14185d5cd8589b194e881c185d5cd95960821b6044820152606401610a4c565b565b612a316129e1565b6005805460ff191660011790557f62e78cea01bee320cd4e420270b5ea74000d11b0c9f74754ebdbfc544b05a2586129c43390565b600260045403612ab85760405162461bcd60e51b815260206004820152601f60248201527f5265656e7472616e637947756172643a207265656e7472616e742063616c6c006044820152606401610a4c565b6002600455565b6001600160a01b038416612ae55760405162461bcd60e51b8152600401610a4c90614011565b336000612af185613156565b90506000612afe85613156565b90506000868152602081815260408083206001600160a01b038c16845290915290205485811015612b415760405162461bcd60e51b8152600401610a4c90614056565b6000878152602081815260408083206001600160a01b038d8116855292528083208985039055908a16825281208054889290612b7e908490613ebe565b909155505060408051888152602081018890526001600160a01b03808b16928c821692918816917fc3d58168c5ae7397731d063d5bbf3d657854427343f4c083240f7aacaa2d0f62910160405180910390a4612bde848a8a8a8a8a6131a1565b505050505050505050565b816001600160a01b0316836001600160a01b031603612c5c5760405162461bcd60e51b815260206004820152602960248201527f455243313135353a2073657474696e6720617070726f76616c20737461747573604482015268103337b91039b2b63360b91b6064820152608401610a4c565b6001600160a01b03838116600081815260016020908152604080832094871680845294825291829020805460ff191686151590811790915591519182527f17307eab39ab6107e8899845ad3d59bd9653f200f220920489ca2b5937696c319101612472565b6000818152600a6020526040812090600a820154610100900460ff166003811115612cee57612cee613a31565b14612d0b5760405162461bcd60e51b8152600401610a4c90613de2565b600980549081906000612d1d83613ea5565b9091555050600a8201805461010061ff001982168117909255600b84018390556040805161016081018252848152602081018790526001808701546001600160a01b0316928201929092526006860154606082018190526080820152600786015460a0820152600886015460c0820152600986015460e08201529283019160ff1690811115612dae57612dae613a31565b81526001602080830182905260006040938401819052858152600b8252839020845181559084015181830155918301516002830180546001600160a01b0319166001600160a01b03909216919091179055606083015160038301556080830151600483015560a0830151600583015560c0830151600683015560e083015160078301556101008301516008830180549192909160ff1916908381811115612e5757612e57613a31565b02179055506101208201518160080160016101000a81548160ff0219169083151502179055506101408201518160090155905050612eaa308284600601546040518060200160405280600081525061325c565b600f80546001810182556000919091527f8d1108e10bcb7c27dddfc02ed9d693a074039d026cf4ea4240b40f7d581ac80201819055612ee88361260d565b60018201546040516001600160a01b0390911690829085907f43129459dbfacf5bce5e265a0ef46a9362d5dd4eeb6c9cf48614e4ad0398f29590600090a4505050565b60006001600160e01b03198216630271189760e51b1480610a785750610a7882613367565b612f5a828261170e565b610fde57612f67816133b7565b612f728360206133c9565b604051602001612f839291906140ce565b60408051601f198184030181529082905262461bcd60e51b8252610a4c91600401613760565b6001600160a01b0384163b1561289a5760405163bc197c8160e01b81526001600160a01b0385169063bc197c8190612fed9089908990889088908890600401614143565b6020604051808303816000875af1925050508015613028575060408051601f3d908101601f19168201909252613025918101906141a1565b60015b6130d4576130346141be565b806308c379a00361306d57506130486141da565b80613053575061306f565b8060405162461bcd60e51b8152600401610a4c9190613760565b505b60405162461bcd60e51b815260206004820152603460248201527f455243313135353a207472616e7366657220746f206e6f6e2d455243313135356044820152732932b1b2b4bb32b91034b6b83632b6b2b73a32b960611b6064820152608401610a4c565b6001600160e01b0319811663bc197c8160e01b146131045760405162461bcd60e51b8152600401610a4c90614263565b50505050505050565b60055460ff16612a275760405162461bcd60e51b815260206004820152601460248201527314185d5cd8589b194e881b9bdd081c185d5cd95960621b6044820152606401610a4c565b6040805160018082528183019092526060916000919060208083019080368337019050509050828160008151811061319057613190613e8f565b602090810291909101015292915050565b6001600160a01b0384163b1561289a5760405163f23a6e6160e01b81526001600160a01b0385169063f23a6e61906131e590899089908890889088906004016142ab565b6020604051808303816000875af1925050508015613220575060408051601f3d908101601f1916820190925261321d918101906141a1565b60015b61322c576130346141be565b6001600160e01b0319811663f23a6e6160e01b146131045760405162461bcd60e51b8152600401610a4c90614263565b6001600160a01b0384166132bc5760405162461bcd60e51b815260206004820152602160248201527f455243313135353a206d696e7420746f20746865207a65726f206164647265736044820152607360f81b6064820152608401610a4c565b3360006132c885613156565b905060006132d585613156565b90506000868152602081815260408083206001600160a01b038b16845290915281208054879290613307908490613ebe565b909155505060408051878152602081018790526001600160a01b03808a1692600092918716917fc3d58168c5ae7397731d063d5bbf3d657854427343f4c083240f7aacaa2d0f62910160405180910390a4613104836000898989896131a1565b60006001600160e01b03198216636cdb3d1360e11b148061339857506001600160e01b031982166303a24d0760e21b145b80610a7857506301ffc9a760e01b6001600160e01b0319831614610a78565b6060610a786001600160a01b03831660145b606060006133d8836002613d96565b6133e3906002613ebe565b6001600160401b038111156133fa576133fa613606565b6040519080825280601f01601f191660200182016040528015613424576020820181803683370190505b509050600360fc1b8160008151811061343f5761343f613e8f565b60200101906001600160f81b031916908160001a905350600f60fb1b8160018151811061346e5761346e613e8f565b60200101906001600160f81b031916908160001a9053506000613492846002613d96565b61349d906001613ebe565b90505b6001811115613515576f181899199a1a9b1b9c1cb0b131b232b360811b85600f16601081106134d1576134d1613e8f565b1a60f81b8282815181106134e7576134e7613e8f565b60200101906001600160f81b031916908160001a90535060049490941c9361350e816142f0565b90506134a0565b5083156135645760405162461bcd60e51b815260206004820181905260248201527f537472696e67733a20686578206c656e67746820696e73756666696369656e746044820152606401610a4c565b9392505050565b80356001600160a01b038116811461358257600080fd5b919050565b6000806040838503121561359a57600080fd5b6135a38361356b565b946020939093013593505050565b6001600160e01b03198116811461101457600080fd5b6000602082840312156135d957600080fd5b8135613564816135b1565b600080604083850312156135f757600080fd5b50508035926020909101359150565b634e487b7160e01b600052604160045260246000fd5b601f8201601f191681016001600160401b038111828210171561364157613641613606565b6040525050565b600082601f83011261365957600080fd5b81356001600160401b0381111561367257613672613606565b604051613689601f8301601f19166020018261361c565b81815284602083860101111561369e57600080fd5b816020850160208301376000918101602001919091529392505050565b600080604083850312156136ce57600080fd5b8235915060208301356001600160401b038111156136eb57600080fd5b610ba285828601613648565b60006020828403121561370957600080fd5b5035919050565b60005b8381101561372b578181015183820152602001613713565b50506000910152565b6000815180845261374c816020860160208601613710565b601f01601f19169290920160200192915050565b6020815260006135646020830184613734565b600081518084526020808501945080840160005b838110156137a357815187529582019590820190600101613787565b509495945050505050565b6020815260006135646020830184613773565b60006001600160401b038211156137da576137da613606565b5060051b60200190565b600082601f8301126137f557600080fd5b81356020613802826137c1565b60405161380f828261361c565b83815260059390931b850182019282810191508684111561382f57600080fd5b8286015b8481101561384a5780358352918301918301613833565b509695505050505050565b600080600080600060a0868803121561386d57600080fd5b6138768661356b565b94506138846020870161356b565b935060408601356001600160401b03808211156138a057600080fd5b6138ac89838a016137e4565b945060608801359150808211156138c257600080fd5b6138ce89838a016137e4565b935060808801359150808211156138e457600080fd5b506138f188828901613648565b9150509295509295909350565b6000806040838503121561391157600080fd5b823591506139216020840161356b565b90509250929050565b6000806040838503121561393d57600080fd5b82356001600160401b038082111561395457600080fd5b818501915085601f83011261396857600080fd5b81356020613975826137c1565b604051613982828261361c565b83815260059390931b85018201928281019150898411156139a257600080fd5b948201945b838610156139c7576139b88661356b565b825294820194908201906139a7565b965050860135925050808211156139dd57600080fd5b50610ba2858286016137e4565b6000806000606084860312156139ff57600080fd5b505081359360208301359350604090920135919050565b600060208284031215613a2857600080fd5b6135648261356b565b634e487b7160e01b600052602160045260246000fd5b60028110613a5757613a57613a31565b9052565b60048110613a5757613a57613a31565b8e81526001600160a01b038e1660208201526101c060408201526000613a956101c083018f613734565b8281036060840152613aa7818f613734565b90508281036080840152613abb818e613734565b905082810360a0840152613acf818d613734565b9150508960c08301528860e08301528761010083015286610120830152613afa610140830187613a47565b613b08610160830186613a5b565b6101808201939093526101a001529c9b505050505050505050505050565b60008060408385031215613b3957600080fd5b613b428361356b565b915060208301358015158114613b5757600080fd5b809150509250929050565b80356002811061358257600080fd5b60008060008060008060008060006101208a8c031215613b9057600080fd5b89356001600160401b0380821115613ba757600080fd5b613bb38d838e01613648565b9a5060208c0135915080821115613bc957600080fd5b613bd58d838e01613648565b995060408c0135915080821115613beb57600080fd5b613bf78d838e01613648565b985060608c0135915080821115613c0d57600080fd5b50613c1a8c828d01613648565b96505060808a0135945060a08a0135935060c08a0135925060e08a01359150613c466101008b01613b62565b90509295985092959850929598565b8b8152602081018b90526001600160a01b038a166040820152606081018990526080810188905260a0810187905260c0810186905260e081018590526101608101613ca4610100830186613a47565b92151561012082015261014001529998505050505050505050565b60008060408385031215613cd257600080fd5b613cdb8361356b565b91506139216020840161356b565b600080600060608486031215613cfe57600080fd5b613d078461356b565b95602085013595506040909401359392505050565b600080600080600060a08688031215613d3457600080fd5b613d3d8661356b565b9450613d4b6020870161356b565b9350604086013592506060860135915060808601356001600160401b03811115613d7457600080fd5b6138f188828901613648565b634e487b7160e01b600052601160045260246000fd5b8082028115828204841417610a7857610a78613d80565b600082613dca57634e487b7160e01b600052601260045260246000fd5b500490565b81810381811115610a7857610a78613d80565b6020808252600b908201526a4e6f742070656e64696e6760a81b604082015260600190565b600181811c90821680613e1b57607f821691505b602082108103613e3b57634e487b7160e01b600052602260045260246000fd5b50919050565b6020808252602e908201527f455243313135353a2063616c6c6572206973206e6f7420746f6b656e206f776e60408201526d195c881bdc88185c1c1c9bdd995960921b606082015260800190565b634e487b7160e01b600052603260045260246000fd5b600060018201613eb757613eb7613d80565b5060010190565b80820180821115610a7857610a78613d80565b601f821115610e7e57600081815260208120601f850160051c81016020861015613ef85750805b601f850160051c820191505b8181101561289a57828155600101613f04565b81516001600160401b03811115613f3057613f30613606565b613f4481613f3e8454613e07565b84613ed1565b602080601f831160018114613f795760008415613f615750858301515b600019600386901b1c1916600185901b17855561289a565b600085815260208120601f198616915b82811015613fa857888601518255948401946001909101908401613f89565b5085821015613fc65787850151600019600388901b60f8161c191681555b5050505050600190811b01905550565b606081526000613fe96060830186613734565b60208301949094525060400152919050565b634e487b7160e01b600052603160045260246000fd5b60208082526025908201527f455243313135353a207472616e7366657220746f20746865207a65726f206164604082015264647265737360d81b606082015260800190565b6020808252602a908201527f455243313135353a20696e73756666696369656e742062616c616e636520666f60408201526939103a3930b739b332b960b11b606082015260800190565b6040815260006140b36040830185613773565b82810360208401526140c58185613773565b95945050505050565b7f416363657373436f6e74726f6c3a206163636f756e7420000000000000000000815260008351614106816017850160208801613710565b7001034b99036b4b9b9b4b733903937b6329607d1b6017918401918201528351614137816028840160208801613710565b01602801949350505050565b6001600160a01b0386811682528516602082015260a06040820181905260009061416f90830186613773565b82810360608401526141818186613773565b905082810360808401526141958185613734565b98975050505050505050565b6000602082840312156141b357600080fd5b8151613564816135b1565b600060033d11156141d75760046000803e5060005160e01c5b90565b600060443d10156141e85790565b6040516003193d81016004833e81513d6001600160401b03816024840111818411171561421757505050505090565b828501915081518181111561422f5750505050505090565b843d87010160208285010111156142495750505050505090565b6142586020828601018761361c565b509095945050505050565b60208082526028908201527f455243313135353a204552433131353552656365697665722072656a656374656040820152676420746f6b656e7360c01b606082015260800190565b6001600160a01b03868116825285166020820152604081018490526060810183905260a0608082018190526000906142e590830184613734565b979650505050505050565b6000816142ff576142ff613d80565b50600019019056fea49807205ce4d355092ef5a8a18f56e8913cf4a201fbe287825b095693c21775a26469706673582212203692aa498cb13aed92ab31cd41c18d051062c92f370fcaf2db50f2ddddcb72d864736f6c63430008140033",
  "linkReferences": {},
  "deployedLinkReferences": {}
}